:100000000428FF3FFF3FFF3F17300313831685008F
:1000100086018B010F30031783129E009F0103138B
:1000200087010730CE002B260C30DB00CE230130B9
:10003000DB00CE238601CE0189257008AB00710854
:10004000AC000030F200F3009630F400F501F60148
:10005000F7014E25FF30F4000330F500F601F701FB
:1000600075247008AD000130CE0089257008AE00FF
:100070007108AF000030F200F3009630F400F50193
:10008000F601F7014E25FF30F4000330F500F601CC
:10009000F70175247008B0000230CE008925700881
:1000A000B1007108B2000030F200F3009630F400A5
:1000B000F501F601F7014E25FF30F4000330F5009D
:1000C000F601F70175247008B3000330CE008925CE
:1000D0007008B4007108B5000030F200F3009630EB
:1000E000F400F501F601F7014E25FF30F40003306E
:1000F000F500F601F70175247008B6002D083002EE
:10010000031C84280616852806122D083302031CBA
:100110008B2886168C2886122D083602031C9228FE
:100120000617932806130130CE000130CF0054305B
:10013000BC006130BD006E30BE007130BF00753054
:10014000C0006530C1003A30C2002030C30020300A
:10015000C4002030C5004330C6002030C700C801AD
:100160003C30D0000F252D08CE003730CF00C225FF
:100170000130CE000830CF003730D0000F250230DC
:10018000CE000130CF003130BC006130BD002030E6
:10019000BE005630BF006130C0006C30C100763008
:1001A000C2007530C3006C30C4006130C5003A3005
:1001B000C6002030C7002030C8002030C9002030E1
:1001C000CA004330CB002030CC00CD013C30D00001
:1001D0000F253008CE003730CF00C2250230CE00C8
:1001E0000C30CF003730D0000F250330CE00013067
:1001F000CF003230BC006130BD002030BE00563030
:10020000BF006130C0006C30C1007630C200753074
:10021000C3006C30C4006130C5003A30C6002030E5
:10022000C7002030C8002030C9002030CA00433049
:10023000CB002030CC00CD013C30D0000F2533085E
:10024000CE003730CF00C2250330CE000C30CF00B7
:100250003730D0000F250430CE000130CF003330CE
:10026000BC006130BD002030BE005630BF006130A0
:10027000C0006C30C1007630C2007530C3006C30F5
:10028000C4006130C5003A30C6002030C7002030BD
:10029000C8002030C9002030CA004330CB002030D5
:1002A000CC00CD013C30D0000F253608CE003730D1
:1002B000CF00C2250430CE000C30CF003730D00044
:1002C0000F250630FC00FF30FB00FF30FA00FC0B6E
:1002D0006A297129FB0B6D297029FA0B6D296A298E
:1002E00067291A30FB00FF30FA00FB0B78297B29C5
:1002F000FA0B782975294230FA00FA0B7D291B2860
:1003000080295126512651265308F0000130F4006F
:10031000700803198F29F40D7410FF3F89297408A0
:10032000A4005408F0000130F300700803199C2960
:10033000F30D7310FF3F96297308A5005508F000D0
:100340000130F20070080319A929F20D7210FF3F65
:10035000A3297208A6005608F0000130F1007008C9
:100360000319B629F10D7110FF3FB0297108A700DC
:100370005808F0000130A20070080319C329A20D2B
:100380002210FF3FBD295908F0000130A900700874
:100390000319CE29A90D2910FF3FC8295A08F000DA
:1003A0000130A10070080319D929A10D2110FF3FC8
:1003B000D3295208A3005708A000520884007308EC
:1003C0007404F0007208F0047108F004F009700879
:1003D0008005841725082404F0002608F004270867
:1003E000F004F009700880058413200884002908AF
:1003F0002204F0002108F004F00970088005841739
:1004000029082204F0002108F004F0097008800592
:1004100084132308840026080004F00027087004D1
:10042000800020088400210880042109F000700861
:1004300080055126210880042109F00070088005FC
:100440005126210880042109F000700880055126FA
:1004500023088400260880042709F000700880051E
:1004600020088400210880042109F000700880051C
:100470005126210880042109F10071088005230814
:1004800084002609F00070088005240880042008F4
:100490008400210880047108800551262308840007
:1004A0002409F000700880052708800420088400D3
:1004B000210880042109F1007108800523088400C7
:1004C0002709F000700880052008840021088004B6
:1004D000710880055126210880042109F000700868
:1004E0008005230884002708800420088400210850
:1004F0008004700880055126230884002709F00035
:100500007008800520088400210880042109F1007A
:10051000710880052308840027080004F0002608DD
:10052000F0042508F00424087004800020088400EA
:10053000210880047108800551260130A8000800B8
:10054000031383127408F8027508031C750FF9026F
:100550007608031C760FFA027708031C770FFB025C
:10056000F30D0730FC00730DF80DF90DFA0DFB0DBE
:100570007408731CC92AF8027508031C750FF90268
:100580007608031C760FFA027708031C770FFB022C
:10059000D62AF80775080318750FF90776080318A7
:1005A000760FFA0777080318770FFB07F30DFC0B9C
:1005B000B32A720DF80DF90DFA0DFB0D7408731CBA
:1005C000EF2AF8027508031C750FF9027608031C60
:1005D000760FFA027708031C770FFB02FC2AF80754
:1005E00075080318750FF90776080318760FFA07D0
:1005F00077080318770FFB07F20D0730FC00720D28
:10060000F80DF90DFA0DFB0D7408721C152BF8028C
:100610007508031C750FF9027608031C760FFA02A1
:100620007708031C770FFB02222BF80775080318C5
:10063000750FF90776080318760FFA07770803187D
:10064000770FFB07F20DFC0BFF2A710DF80DF90D6A
:10065000FA0DFB0D7408721C3B2BF8027508031C85
:10066000750FF9027608031C760FFA027708031C4F
:10067000770FFB02482BF80775080318750FF90769
:1006800076080318760FFA0777080318770FFB0729
:10069000F10D0730FC00710DF80DF90DFA0DFB0D91
:1006A0007408711C612BF8027508031C750FF902A0
:1006B0007608031C760FFA027708031C770FFB02FB
:1006C0006E2BF80775080318750FF90776080318DD
:1006D000760FFA0777080318770FFB07F10DFC0B6D
:1006E0004B2B700DF80DF90DFA0DFB0D7408711CF4
:1006F000872BF8027508031C750FF9027608031C96
:10070000760FFA027708031C770FFB02942BF80789
:1007100075080318750FF90776080318760FFA079E
:1007200077080318770FFB07F00D0730FC00700DFA
:10073000F80DF90DFA0DFB0D7408701CAD2BF802C5
:100740007508031C750FF9027608031C760FFA0270
:100750007708031C770FFB02BA2BF80775080318FC
:10076000750FF90776080318760FFA07770803184C
:10077000770FFB07F00DFC0B972B7018CD2B74082F
:10078000F80775080318750FF90776080318760F30
:10079000FA0777080318770FFB0708000313831283
:1007A000200884002109F000700880052209F0006B
:1007B000700880052308840025082404F00026081A
:1007C000F0042708F004F009700880050030DB1BF6
:1007D0000130F1007108013A031DF02B2408800458
:1007E00000305B1B0130F1007108013A031DFA2B48
:1007F000250880040030DB1A0130F1007108013A4D
:10080000031D042C2608800400305B1A0130F1001F
:100810007108013A031D0E2C27088004200884006B
:100820002808013A031D192C2209F00070088005E0
:100830001B2C220880042108800488262109F0004E
:10084000700880052209F0007008800523088400E4
:1008500025082404F0002608F0042708F004F00915
:10086000700880050030DB190130F1007108013A91
:10087000031D3C2C2408800400305B190130F1007A
:100880007108013A031D462C250880040030DB184E
:100890000130F1007108013A031D502C2608800434
:1008A00001305B05F1007108013A031D592C27083E
:1008B0008004200884002808013A031D642C2209C2
:1008C000F00070088005662C22088004210880044E
:1008D00088262109F000700880052808013A031DC8
:1008E000732C5126742C7926080003138312FC0103
:1008F000F71BFC0AFD01FB01FA01F901F80173087D
:100900007204710470040319092D73087706AA0094
:10091000AA1BFD09F71F972CF409F509F609F70939
:10092000F40A0319F50A0319F60A0319F70AF31F63
:10093000A42CF009F109F209F309F00A0319F10AEC
:100940000319F20A0319F30A73087704AA00AA1B11
:10095000C52CA022FC1BE22CFD1F092DF009F1097A
:10096000F209F309F00A0319F10A0319F20A03194B
:10097000F30AF809F909FA09FB09F80A0319F90A4F
:100980000319FA0A0319FB0A092DF71FDC2CF31BC4
:10099000D62C7308FB007208FA007108F900700881
:1009A000F800F301F201F101F001AC2CF301F201C6
:1009B000F101F001F00A0034F309F209F109F0093C
:1009C000FC17A92CF80A0319F90A0319FA0A0319E2
:1009D000FB0A74087802031DAC2C75087902031D0C
:1009E000AC2C76087A02031DAC2C77087B02031D21
:1009F000AC2CFB01FA01F901F801F00A0319F10A24
:100A00000319F20A0319F30AF31FAC2CAA012A16E0
:100A1000FF34AA017C1C0D2D6226003F0800031341
:100A200083124E08013A031D182D8030CE002F2D61
:100A30004E08023A031D1F2DC030CE002F2D4E0848
:100A4000033A031D262D9430CE002F2D4E08043A74
:100A5000031D2D2DD430CE002F2D8030CE004F031E
:100A6000F0004E08F0077008CE007008DB00CE23BF
:100A7000A801D1015108500784000008F200720853
:100A8000003A03194B2D5108500784000008D2008A
:100A90007026D10A3A2D0130A800080003138312F2
:100AA000FD01F31F602DF009F109F209F309F00AC5
:100AB0000319F10A0319F20A0319F30A8130FD0739
:100AC000F71F6E2DF409F509F609F709F40A031961
:100AD000F50A0319F60A0319F70AFD0AF4257D1C25
:100AE000882DF009F109F209F309F809F909FA0961
:100AF000FB09F00A0319F10A0319F20A0319F30AB0
:100B00000319F80A0319F90A0319FA0A0319FB0A67
:100B100008004030031383129F05F03083169F04B2
:100B200083129F174E08F000F00D7010F00D70103A
:100B300070089F041F1481269F141F08F2000030C4
:100B4000F2180130F2007208013A031DA92D0000CD
:100B50009D2D1E08F200F3017208F300F2017208E5
:100B6000CF007308D00083161E0872048312CF00D2
:100B70007308D0000030D0041F104F08F000500858
:100B8000F1000800013003138312D0004E08093C25
:100B90000318CB2DD00A4E08633C0318D02DD00A81
:100BA0004F08840020308000840A8000840A80007E
:100BB000840A800184035008003C0318F32D0A3096
:100BC000F4004E08F00040267808F000303070073E
:100BD000800084030A30F4004E08F00040267008BC
:100BE000CE00D003DB2D0800031383122230FC005B
:100BF000F801F901FA01FB01FC0303192A2E031085
:100C0000FB0CFA0CF90CF80CF30CF20CF10CF00CD8
:100C1000031CFC2DFC0303191C2E7408F80775082F
:100C20000318750FF90776080318760FFA07770887
:100C30000318770FFB07002E7408F80775080318D0
:100C4000750FF90776080318760FFA077708031867
:100C5000770FFB070800031383124E08D2000730FA
:100C6000D3000630D4000530D5000430D6004E083D
:100C7000D7000230D800D9010330DA008121080002
:100C800003138312F8010830FC00700DF80D74088E
:100C9000F80203184D2EF8070310F00DFC0B452E3B
:100CA0000800083003138312FB00FF30FA00FB0B2F
:100CB0005A2E5D2EFA0B5A2E572E1E30FA00FA0BC2
:100CC0005F2E080003138312FB09FA09F909F809DA
:100CD000F80A0319F90A0319FA0A0319FB0A0800AA
:100CE00003138312A8015208DB00CE230130A800B1
:100CF0000800103003138312FA00FA0B7D2E000057
:100D00000800073003138312FA00FA0B852E08003F
:100D100000000800FF3FFF3FFF3FFF3FFF3FFF3F57
:02400E00C430BC
:00000001FF
